{
  "contractName": "Voting",
  "abi": [
    {
      "constant": true,
      "inputs": [
        {
          "name": "",
          "type": "bytes32"
        }
      ],
      "name": "votesReceived",
      "outputs": [
        {
          "name": "",
          "type": "uint256"
        }
      ],
      "payable": false,
      "stateMutability": "view",
      "type": "function"
    },
    {
      "constant": true,
      "inputs": [],
      "name": "totalTokens",
      "outputs": [
        {
          "name": "",
          "type": "uint256"
        }
      ],
      "payable": false,
      "stateMutability": "view",
      "type": "function"
    },
    {
      "constant": true,
      "inputs": [],
      "name": "tokenPrice",
      "outputs": [
        {
          "name": "",
          "type": "uint256"
        }
      ],
      "payable": false,
      "stateMutability": "view",
      "type": "function"
    },
    {
      "constant": true,
      "inputs": [
        {
          "name": "",
          "type": "uint256"
        }
      ],
      "name": "candidateList",
      "outputs": [
        {
          "name": "",
          "type": "bytes32"
        }
      ],
      "payable": false,
      "stateMutability": "view",
      "type": "function"
    },
    {
      "constant": true,
      "inputs": [
        {
          "name": "",
          "type": "address"
        }
      ],
      "name": "voterInfo",
      "outputs": [
        {
          "name": "voterAddress",
          "type": "address"
        },
        {
          "name": "tokensBought",
          "type": "uint256"
        }
      ],
      "payable": false,
      "stateMutability": "view",
      "type": "function"
    },
    {
      "constant": true,
      "inputs": [],
      "name": "balanceTokens",
      "outputs": [
        {
          "name": "",
          "type": "uint256"
        }
      ],
      "payable": false,
      "stateMutability": "view",
      "type": "function"
    },
    {
      "inputs": [
        {
          "name": "tokens",
          "type": "uint256"
        },
        {
          "name": "pricePerToken",
          "type": "uint256"
        },
        {
          "name": "candidateNames",
          "type": "bytes32[]"
        }
      ],
      "payable": false,
      "stateMutability": "nonpayable",
      "type": "constructor"
    },
    {
      "constant": true,
      "inputs": [
        {
          "name": "candidate",
          "type": "bytes32"
        }
      ],
      "name": "totalVotesFor",
      "outputs": [
        {
          "name": "",
          "type": "uint256"
        }
      ],
      "payable": false,
      "stateMutability": "view",
      "type": "function"
    },
    {
      "constant": false,
      "inputs": [
        {
          "name": "candidate",
          "type": "bytes32"
        },
        {
          "name": "votesInTokens",
          "type": "uint256"
        }
      ],
      "name": "voteForCandidate",
      "outputs": [],
      "payable": false,
      "stateMutability": "nonpayable",
      "type": "function"
    },
    {
      "constant": true,
      "inputs": [
        {
          "name": "candidate",
          "type": "bytes32"
        }
      ],
      "name": "indexOfCandidate",
      "outputs": [
        {
          "name": "",
          "type": "uint256"
        }
      ],
      "payable": false,
      "stateMutability": "view",
      "type": "function"
    },
    {
      "constant": false,
      "inputs": [],
      "name": "buy",
      "outputs": [
        {
          "name": "",
          "type": "uint256"
        }
      ],
      "payable": true,
      "stateMutability": "payable",
      "type": "function"
    },
    {
      "constant": true,
      "inputs": [],
      "name": "tokensSold",
      "outputs": [
        {
          "name": "",
          "type": "uint256"
        }
      ],
      "payable": false,
      "stateMutability": "view",
      "type": "function"
    },
    {
      "constant": true,
      "inputs": [
        {
          "name": "user",
          "type": "address"
        }
      ],
      "name": "voterDetails",
      "outputs": [
        {
          "name": "",
          "type": "uint256"
        },
        {
          "name": "",
          "type": "uint256[]"
        }
      ],
      "payable": false,
      "stateMutability": "view",
      "type": "function"
    },
    {
      "constant": false,
      "inputs": [
        {
          "name": "account",
          "type": "address"
        }
      ],
      "name": "transferTo",
      "outputs": [],
      "payable": false,
      "stateMutability": "nonpayable",
      "type": "function"
    },
    {
      "constant": true,
      "inputs": [],
      "name": "allCandidates",
      "outputs": [
        {
          "name": "",
          "type": "bytes32[]"
        }
      ],
      "payable": false,
      "stateMutability": "view",
      "type": "function"
    }
  ],
  "bytecode": "0x6060604052341561000f57600080fd5b604051610cdd380380610cdd833981016040528080519060200190919080519060200190919080518201919050508060029080519060200190610053929190610071565b508260038190555082600481905550816005819055505050506100e9565b8280548282559060005260206000209081019282156100b3579160200282015b828111156100b2578251829060001916905591602001919060010190610091565b5b5090506100c091906100c4565b5090565b6100e691905b808211156100e25760008160009055506001016100ca565b5090565b90565b610be5806100f86000396000f3006060604052600436106100d0576000357c0100000000000000000000000000000000000000000000000000000000900463ffffffff1680632f265cf7146100d5578063518ab2a8146101105780635938750d146101395780636b2dc6b5146101ce5780637021939f146101fe5780637e1c0c09146102395780637ff9b5961461026257806381c407151461028b578063a03fa7e3146102f5578063a6f2ae3a1461032e578063b13c744b1461034c578063cdf58d351461038b578063e4494a0f1461040b578063ecd098b014610434575b600080fd5b34156100e057600080fd5b6100fa60048080356000191690602001909190505061046f565b6040518082815260200191505060405180910390f35b341561011b57600080fd5b610123610494565b6040518082815260200191505060405180910390f35b341561014457600080fd5b610170600480803573ffffffffffffffffffffffffffffffffffffffff169060200190919050506104a2565b6040518083815260200180602001828103825283818151815260200191508051906020019060200280838360005b838110156101b957808201518184015260208101905061019e565b50505050905001935050505060405180910390f35b34156101d957600080fd5b6101fc60048080356000191690602001909190803590602001909190505061058a565b005b341561020957600080fd5b610223600480803560001916906020019091905050610821565b6040518082815260200191505060405180910390f35b341561024457600080fd5b61024c610839565b6040518082815260200191505060405180910390f35b341561026d57600080fd5b61027561083f565b6040518082815260200191505060405180910390f35b341561029657600080fd5b61029e610845565b6040518080602001828103825283818151815260200191508051906020019060200280838360005b838110156102e15780820151818401526020810190506102c6565b505050509050019250505060405180910390f35b341561030057600080fd5b61032c600480803573ffffffffffffffffffffffffffffffffffffffff169060200190919050506108a7565b005b610336610901565b6040518082815260200191505060405180910390f35b341561035757600080fd5b61036d6004808035906020019091905050610a0b565b60405180826000191660001916815260200191505060405180910390f35b341561039657600080fd5b6103c2600480803573ffffffffffffffffffffffffffffffffffffffff16906020019091905050610a2f565b604051808373ffffffffffffffffffffffffffffffffffffffff1673ffffffffffffffffffffffffffffffffffffffff1681526020018281526020019250505060405180910390f35b341561041657600080fd5b61041e610a73565b6040518082815260200191505060405180910390f35b341561043f57600080fd5b610459600480803560001916906020019091905050610a79565b6040518082815260200191505060405180910390f35b6000600160008360001916600019168152602001908152602001600020549050919050565b600060045460035403905090565b60006104ac610b40565b6000808473ffffffffffffffffffffffffffffffffffffffff1673ffffffffffffffffffffffffffffffffffffffff168152602001908152602001600020600101546000808573ffffffffffffffffffffffffffffffffffffffff1673ffffffffffffffffffffffffffffffffffffffff1681526020019081526020016000206002018080548060200260200160405190810160405280929190818152602001828054801561057a57602002820191906000526020600020905b815481526020019060010190808311610566575b5050505050905091509150915091565b600080600061059885610a79565b92507fffffffffffffffffffffffffffffffffffffffffffffffffffffffffffffffff83141515156105c957600080fd5b60008060003373ffffffffffffffffffffffffffffffffffffffff1673ffffffffffffffffffffffffffffffffffffffff16815260200190815260200160002060020180549050141561069e57600091505b60028054905082101561069d576000803373ffffffffffffffffffffffffffffffffffffffff1673ffffffffffffffffffffffffffffffffffffffff168152602001908152602001600020600201805480600101828161067b9190610b54565b916000526020600020900160008090919091505550818060010192505061061b565b5b6107366000803373ffffffffffffffffffffffffffffffffffffffff1673ffffffffffffffffffffffffffffffffffffffff16815260200190815260200160002060020180548060200260200160405190810160405280929190818152602001828054801561072c57602002820191906000526020600020905b815481526020019060010190808311610718575b5050505050610af7565b6000803373ffffffffffffffffffffffffffffffffffffffff1673ffffffffffffffffffffffffffffffffffffffff1681526020019081526020016000206001015403905083811015151561078a57600080fd5b8360016000876000191660001916815260200190815260200160002060008282540192505081905550836000803373ffffffffffffffffffffffffffffffffffffffff1673ffffffffffffffffffffffffffffffffffffffff1681526020019081526020016000206002018481548110151561080257fe5b9060005260206000209001600082825401925050819055505050505050565b60016020528060005260406000206000915090505481565b60035481565b60055481565b61084d610b80565b600280548060200260200160405190810160405280929190818152602001828054801561089d57602002820191906000526020600020905b81546000191681526020019060010190808311610885575b5050505050905090565b8073ffffffffffffffffffffffffffffffffffffffff166108fc3073ffffffffffffffffffffffffffffffffffffffff16319081150290604051600060405180830381858888f1935050505015156108fe57600080fd5b50565b6000806005543481151561091157fe5b049050600454811115151561092557600080fd5b336000803373ffffffffffffffffffffffffffffffffffffffff1673ffffffffffffffffffffffffffffffffffffffff16815260200190815260200160002060000160006101000a81548173ffffffffffffffffffffffffffffffffffffffff021916908373ffffffffffffffffffffffffffffffffffffffff160217905550806000803373ffffffffffffffffffffffffffffffffffffffff1673ffffffffffffffffffffffffffffffffffffffff16815260200190815260200160002060010160008282540192505081905550806004600082825403925050819055508091505090565b600281815481101515610a1a57fe5b90600052602060002090016000915090505481565b60006020528060005260406000206000915090508060000160009054906101000a900473ffffffffffffffffffffffffffffffffffffffff16908060010154905082565b60045481565b600080600090505b600280549050811015610acd578260001916600282815481101515610aa257fe5b906000526020600020900154600019161415610ac057809150610af1565b8080600101915050610a81565b7fffffffffffffffffffffffffffffffffffffffffffffffffffffffffffffffff91505b50919050565b6000806000809150600090505b8351811015610b36578381815181101515610b1b57fe5b90602001906020020151820191508080600101915050610b04565b8192505050919050565b602060405190810160405280600081525090565b815481835581811511610b7b57818360005260206000209182019101610b7a9190610b94565b5b505050565b602060405190810160405280600081525090565b610bb691905b80821115610bb2576000816000905550600101610b9a565b5090565b905600a165627a7a72305820aaafcdc153c762a694fd0a66e1afe2d1ecf9c546fa7fa8ec6a0020668103a2690029",
  "source": "pragma solidity ^0.4.18;\n\n// Shareholder/Token voting contract\n//\n// allows purchases of shares/tokens and votes for candidates per share/token\n\ncontract Voting {\n\n  // struct datatype to store voter information.\n  struct voter {\n    address voterAddress; // The address of the voter\n    uint tokensBought;    // The total no. of tokens this voter owns\n    uint[] tokensUsedPerCandidate; // Array to keep track of votes per candidate.\n\n  }\n\n  /*\n   The key of the mapping is candidate name stored as type bytes32 \n   and value is an unsigned integer which used to store the vote \n   count\n   */\n\n  mapping (address => voter) public voterInfo;\n  mapping (bytes32 => uint) public votesReceived;\n\n  bytes32[] public candidateList;\n\n  uint public totalTokens; // Total no. of tokens available for this election\n  uint public balanceTokens; // Total no. of tokens still available for purchase\n  uint public tokenPrice; // Price per token\n\n  /* When contract is deployed on the blockchain, we will initialize\n   the total number of tokens for sale, cost per token and all the candidates\n   */\n  function Voting(uint tokens, uint pricePerToken, bytes32[] candidateNames) public {\n    candidateList = candidateNames;\n    totalTokens = tokens;\n    balanceTokens = tokens;\n    tokenPrice = pricePerToken;\n  }\n\n  function totalVotesFor(bytes32 candidate) view public returns (uint) {\n    return votesReceived[candidate];\n  }\n\n\n  function voteForCandidate(bytes32 candidate, uint votesInTokens) public {\n    uint index = indexOfCandidate(candidate);\n    require(index != uint(-1));\n\n    // msg.sender gives us the address of the account/voter who is trying\n    // to call this function\n    if (voterInfo[msg.sender].tokensUsedPerCandidate.length == 0) {\n      for(uint i = 0; i < candidateList.length; i++) {\n        voterInfo[msg.sender].tokensUsedPerCandidate.push(0);\n      }\n    }\n\n    // Make sure this voter has enough tokens to cast the vote\n    uint availableTokens = voterInfo[msg.sender].tokensBought - totalTokensUsed(voterInfo[msg.sender].tokensUsedPerCandidate);\n    require(availableTokens >= votesInTokens);\n\n    votesReceived[candidate] += votesInTokens;\n\n    // Store how many tokens were used for this candidate\n    voterInfo[msg.sender].tokensUsedPerCandidate[index] += votesInTokens;\n  }\n\n  // Return the sum of all the tokens used by this voter.\n  function totalTokensUsed(uint[] _tokensUsedPerCandidate) private pure returns (uint) {\n    uint totalUsedTokens = 0;\n    for(uint i = 0; i < _tokensUsedPerCandidate.length; i++) {\n      totalUsedTokens += _tokensUsedPerCandidate[i];\n    }\n    return totalUsedTokens;\n  }\n\n  function indexOfCandidate(bytes32 candidate) view public returns (uint) {\n    for(uint i = 0; i < candidateList.length; i++) {\n      if (candidateList[i] == candidate) {\n        return i;\n      }\n    }\n    return uint(-1);\n  }\n\n  /* Function for purchasing tokens */\n\n  function buy() payable public returns (uint) {\n    uint tokensToBuy = msg.value / tokenPrice;\n    require(tokensToBuy <= balanceTokens);\n    voterInfo[msg.sender].voterAddress = msg.sender;\n    voterInfo[msg.sender].tokensBought += tokensToBuy;\n    balanceTokens -= tokensToBuy;\n    return tokensToBuy;\n  }\n\n  function tokensSold() view public returns (uint) {\n    return totalTokens - balanceTokens;\n  }\n\n  function voterDetails(address user) view public returns (uint, uint[]) {\n    return (voterInfo[user].tokensBought, voterInfo[user].tokensUsedPerCandidate);\n  }\n\n  /* All the ether sent by voters who purchased the tokens is in this\n   contract's account. This method will be used to transfer out all those ethers\n   in to another account. *** The way this function is written currently, anyone can call\n   this method and transfer the balance in to their account. Needs modifier so only\n   the owner of this contract can cash out.\n   */\n\n  function transferTo(address account) public {\n    account.transfer(this.balance);\n  }\n\n  function allCandidates() view public returns (bytes32[]) {\n    return candidateList;\n  }\n\n}",
  "sourcePath": "/Users/Des1derata/Desktop/Code/Solidity/TokenVoting/contracts/Voting.sol",
  "compiler": {
    "name": "solc",
    "version": "0.4.19+commit.c4cbbb05.Emscripten.clang"
  },
  "schemaVersion": "2.0.0",
  "updatedAt": "2018-04-10T03:59:35.568Z"
}